{
  "contractName": "Blacklist",
  "abi": [
    {
      "inputs": [],
      "stateMutability": "nonpayable",
      "type": "constructor"
    },
    {
      "anonymous": false,
      "inputs": [
        {
          "indexed": false,
          "internalType": "address",
          "name": "_user",
          "type": "address"
        }
      ],
      "name": "AddedBlackList",
      "type": "event"
    },
    {
      "anonymous": false,
      "inputs": [
        {
          "indexed": false,
          "internalType": "address",
          "name": "_blackListedUser",
          "type": "address"
        },
        {
          "indexed": false,
          "internalType": "uint256",
          "name": "_balance",
          "type": "uint256"
        }
      ],
      "name": "DestroyedBlackFunds",
      "type": "event"
    },
    {
      "anonymous": false,
      "inputs": [
        {
          "indexed": true,
          "internalType": "address",
          "name": "previousOwner",
          "type": "address"
        },
        {
          "indexed": true,
          "internalType": "address",
          "name": "newOwner",
          "type": "address"
        }
      ],
      "name": "OwnershipTransferred",
      "type": "event"
    },
    {
      "anonymous": false,
      "inputs": [
        {
          "indexed": false,
          "internalType": "address",
          "name": "_user",
          "type": "address"
        }
      ],
      "name": "RemovedBlackList",
      "type": "event"
    },
    {
      "inputs": [
        {
          "internalType": "address",
          "name": "",
          "type": "address"
        }
      ],
      "name": "allowedTokens",
      "outputs": [
        {
          "internalType": "bool",
          "name": "",
          "type": "bool"
        }
      ],
      "stateMutability": "view",
      "type": "function"
    },
    {
      "inputs": [
        {
          "internalType": "address",
          "name": "",
          "type": "address"
        }
      ],
      "name": "isBlackListed",
      "outputs": [
        {
          "internalType": "bool",
          "name": "",
          "type": "bool"
        }
      ],
      "stateMutability": "view",
      "type": "function"
    },
    {
      "inputs": [],
      "name": "owner",
      "outputs": [
        {
          "internalType": "address",
          "name": "",
          "type": "address"
        }
      ],
      "stateMutability": "view",
      "type": "function"
    },
    {
      "inputs": [],
      "name": "renounceOwnership",
      "outputs": [],
      "stateMutability": "nonpayable",
      "type": "function"
    },
    {
      "inputs": [
        {
          "internalType": "address",
          "name": "newOwner",
          "type": "address"
        }
      ],
      "name": "transferOwnership",
      "outputs": [],
      "stateMutability": "nonpayable",
      "type": "function"
    },
    {
      "inputs": [
        {
          "internalType": "address",
          "name": "token",
          "type": "address"
        }
      ],
      "name": "isTokenAllowed",
      "outputs": [
        {
          "internalType": "bool",
          "name": "",
          "type": "bool"
        }
      ],
      "stateMutability": "view",
      "type": "function"
    },
    {
      "inputs": [
        {
          "internalType": "address",
          "name": "token",
          "type": "address"
        }
      ],
      "name": "allowedToken",
      "outputs": [],
      "stateMutability": "nonpayable",
      "type": "function"
    },
    {
      "inputs": [
        {
          "internalType": "address",
          "name": "token",
          "type": "address"
        }
      ],
      "name": "disallowToken",
      "outputs": [],
      "stateMutability": "nonpayable",
      "type": "function"
    },
    {
      "inputs": [
        {
          "internalType": "address",
          "name": "_maker",
          "type": "address"
        }
      ],
      "name": "getBlacklistStatus",
      "outputs": [
        {
          "internalType": "bool",
          "name": "",
          "type": "bool"
        }
      ],
      "stateMutability": "view",
      "type": "function"
    },
    {
      "inputs": [
        {
          "internalType": "address",
          "name": "_evilUser",
          "type": "address"
        }
      ],
      "name": "addBlackList",
      "outputs": [],
      "stateMutability": "nonpayable",
      "type": "function"
    },
    {
      "inputs": [
        {
          "internalType": "address",
          "name": "_clearedUser",
          "type": "address"
        }
      ],
      "name": "removeBlackList",
      "outputs": [],
      "stateMutability": "nonpayable",
      "type": "function"
    }
  ],
  "bytecode": "0x608060405234801561001057600080fd5b5061001a3361001f565b61006f565b600080546001600160a01b038381166001600160a01b0319831681178455604051919092169283917f8be0079c531659141344cd1fd0a4f28419497f9722a3daafe3b4186f6b6457e09190a35050565b6104fe8061007e6000396000f3fe608060405234801561001057600080fd5b50600436106100a95760003560e01c8063e47d606011610071578063e47d60601461013a578063e4997dc51461015d578063e744092e14610170578063e79767af14610193578063f2fde38b146101a6578063f9eaee0d146101b957600080fd5b80630ecb93c0146100ae57806358d2b4a5146100c3578063715018a614610104578063756742f81461010c5780638da5cb5b1461011f575b600080fd5b6100c16100bc366004610498565b6101e5565b005b6100ef6100d1366004610498565b6001600160a01b031660009081526001602052604090205460ff1690565b60405190151581526020015b60405180910390f35b6100c1610272565b6100c161011a366004610498565b610286565b6000546040516001600160a01b0390911681526020016100fb565b6100ef610148366004610498565b60016020526000908152604090205460ff1681565b6100c161016b366004610498565b6102c5565b6100ef61017e366004610498565b60026020526000908152604090205460ff1681565b6100c16101a1366004610498565b610347565b6100c16101b4366004610498565b610370565b6100ef6101c7366004610498565b6001600160a01b031660009081526002602052604090205460ff1690565b6000546001600160a01b031633148061020d57503360009081526002602052604090205460ff165b61021657600080fd5b6001600160a01b038116600081815260016020818152604092839020805460ff191690921790915590519182527f42e160154868087d6bfdc0ca23d96a1c1cfa32f1b72ba9ba27b69b98a0d819dc91015b60405180910390a150565b61027a6103ee565b6102846000610448565b565b61028e6103ee565b6001600160a01b0381166102a157600080fd5b6001600160a01b03166000908152600260205260409020805460ff19166001179055565b6000546001600160a01b03163314806102ed57503360009081526002602052604090205460ff165b6102f657600080fd5b6001600160a01b038116600081815260016020908152604091829020805460ff1916905590519182527fd7e9ec6e6ecd65492dce6bf513cd6867560d49544421d0783ddf06e76c24470c9101610267565b61034f6103ee565b6001600160a01b03166000908152600260205260409020805460ff19169055565b6103786103ee565b6001600160a01b0381166103e25760405162461bcd60e51b815260206004820152602660248201527f4f776e61626c653a206e6577206f776e657220697320746865207a65726f206160448201526564647265737360d01b60648201526084015b60405180910390fd5b6103eb81610448565b50565b6000546001600160a01b031633146102845760405162461bcd60e51b815260206004820181905260248201527f4f776e61626c653a2063616c6c6572206973206e6f7420746865206f776e657260448201526064016103d9565b600080546001600160a01b038381166001600160a01b0319831681178455604051919092169283917f8be0079c531659141344cd1fd0a4f28419497f9722a3daafe3b4186f6b6457e09190a35050565b6000602082840312156104aa57600080fd5b81356001600160a01b03811681146104c157600080fd5b939250505056fea2646970667358221220bb3ecbba06607602f626f6b297ffe756a94fc8da44859ecb19c779d01650bf2b64736f6c63430008130033",
  "immutableReferences": {},
  "source": "// SPDX-License-Identifier: MIT\npragma solidity ^0.8.0;\nimport \"@openzeppelin/contracts/access/Ownable.sol\";\nimport \"./interfaces/IBlacklist.sol\";\n\ncontract Blacklist is Ownable, IBlacklist {\n    mapping(address => bool) public isBlackListed;\n    mapping(address => bool) public allowedTokens;\n\n    event DestroyedBlackFunds(address _blackListedUser, uint _balance);\n    event AddedBlackList(address _user);\n    event RemovedBlackList(address _user);\n\n    constructor() {}\n\n    // Modifier to allow only the owner or allowed tokens to execute certain functions\n    modifier onlyOwnerOrAllowed() {\n        require(msg.sender==owner() || allowedTokens[msg.sender]);\n        _;\n    }\n\n    // Function to check if a token is allowed\n    function isTokenAllowed(address token) public view returns (bool) {\n        return allowedTokens[token];\n    }\n\n    // Function to allow a token (onlyOwner can call this)\n    function allowedToken(address token) external onlyOwner {\n        if (token == address(0)) revert();\n        allowedTokens[token] = true;\n    }\n\n    // Function to disallow a token (onlyOwner can call this)\n    function disallowToken(address token) external onlyOwner {\n        allowedTokens[token] = false;\n    }\n\n    // Getters to allow the same blacklist to be used also by other contracts\n    function getBlacklistStatus(address _maker) external view returns (bool) {\n        return isBlackListed[_maker];\n    }\n\n    // Function to add an address to the blacklist (onlyOwner or allowed tokens can call this)\n    function addBlackList(address _evilUser) external onlyOwnerOrAllowed() {\n        isBlackListed[_evilUser] = true;\n        emit AddedBlackList(_evilUser);\n    }\n\n    // Function to remove an address from the blacklist (onlyOwner or allowed tokens can call this)\n    function removeBlackList(address _clearedUser) external onlyOwnerOrAllowed() {\n        isBlackListed[_clearedUser] = false;\n        emit RemovedBlackList(_clearedUser);\n    }\n}",
  "sourcePath": "/home/leoscant/Projects/MasterZ/Token/contracts/Blacklist.sol",
  "compiler": {
    "name": "solc",
    "version": "0.8.19+commit.7dd6d404.Emscripten.clang"
  },
  "schemaVersion": "3.4.14",
  "updatedAt": "2023-07-26T12:19:29.082Z",
  "devdoc": {
    "kind": "dev",
    "methods": {
      "owner()": {
        "details": "Returns the address of the current owner."
      },
      "renounceOwnership()": {
        "details": "Leaves the contract without owner. It will not be possible to call `onlyOwner` functions. Can only be called by the current owner. NOTE: Renouncing ownership will leave the contract without an owner, thereby disabling any functionality that is only available to the owner."
      },
      "transferOwnership(address)": {
        "details": "Transfers ownership of the contract to a new account (`newOwner`). Can only be called by the current owner."
      }
    },
    "version": 1
  },
  "userdoc": {
    "kind": "user",
    "methods": {},
    "version": 1
  }
}