{
  "contractName": "BlackList",
  "abi": [
    {
      "inputs": [],
      "stateMutability": "nonpayable",
      "type": "constructor"
    },
    {
      "anonymous": false,
      "inputs": [
        {
          "indexed": false,
          "internalType": "address",
          "name": "_user",
          "type": "address"
        }
      ],
      "name": "AddedBlackList",
      "type": "event"
    },
    {
      "anonymous": false,
      "inputs": [
        {
          "indexed": false,
          "internalType": "address",
          "name": "_blackListedUser",
          "type": "address"
        },
        {
          "indexed": false,
          "internalType": "uint256",
          "name": "_balance",
          "type": "uint256"
        }
      ],
      "name": "DestroyedBlackFunds",
      "type": "event"
    },
    {
      "anonymous": false,
      "inputs": [
        {
          "indexed": true,
          "internalType": "address",
          "name": "previousOwner",
          "type": "address"
        },
        {
          "indexed": true,
          "internalType": "address",
          "name": "newOwner",
          "type": "address"
        }
      ],
      "name": "OwnershipTransferred",
      "type": "event"
    },
    {
      "anonymous": false,
      "inputs": [
        {
          "indexed": false,
          "internalType": "address",
          "name": "_user",
          "type": "address"
        }
      ],
      "name": "RemovedBlackList",
      "type": "event"
    },
    {
      "inputs": [
        {
          "internalType": "address",
          "name": "",
          "type": "address"
        }
      ],
      "name": "allowedTokens",
      "outputs": [
        {
          "internalType": "bool",
          "name": "",
          "type": "bool"
        }
      ],
      "stateMutability": "view",
      "type": "function"
    },
    {
      "inputs": [
        {
          "internalType": "address",
          "name": "",
          "type": "address"
        }
      ],
      "name": "isBlackListed",
      "outputs": [
        {
          "internalType": "bool",
          "name": "",
          "type": "bool"
        }
      ],
      "stateMutability": "view",
      "type": "function"
    },
    {
      "inputs": [],
      "name": "owner",
      "outputs": [
        {
          "internalType": "address",
          "name": "",
          "type": "address"
        }
      ],
      "stateMutability": "view",
      "type": "function"
    },
    {
      "inputs": [],
      "name": "renounceOwnership",
      "outputs": [],
      "stateMutability": "nonpayable",
      "type": "function"
    },
    {
      "inputs": [
        {
          "internalType": "address",
          "name": "newOwner",
          "type": "address"
        }
      ],
      "name": "transferOwnership",
      "outputs": [],
      "stateMutability": "nonpayable",
      "type": "function"
    },
    {
      "inputs": [
        {
          "internalType": "address",
          "name": "token",
          "type": "address"
        }
      ],
      "name": "allowedToken",
      "outputs": [],
      "stateMutability": "nonpayable",
      "type": "function"
    },
    {
      "inputs": [
        {
          "internalType": "address",
          "name": "_maker",
          "type": "address"
        }
      ],
      "name": "getBlackListStatus",
      "outputs": [
        {
          "internalType": "bool",
          "name": "",
          "type": "bool"
        }
      ],
      "stateMutability": "view",
      "type": "function"
    },
    {
      "inputs": [
        {
          "internalType": "address",
          "name": "_evilUser",
          "type": "address"
        },
        {
          "internalType": "address",
          "name": "token",
          "type": "address"
        }
      ],
      "name": "addBlackList",
      "outputs": [],
      "stateMutability": "nonpayable",
      "type": "function"
    },
    {
      "inputs": [
        {
          "internalType": "address",
          "name": "_clearedUser",
          "type": "address"
        },
        {
          "internalType": "address",
          "name": "token",
          "type": "address"
        }
      ],
      "name": "removeBlackList",
      "outputs": [],
      "stateMutability": "nonpayable",
      "type": "function"
    }
  ],
  "bytecode": "0x608060405234801561000f575f80fd5b506100193361001e565b61006d565b5f80546001600160a01b038381166001600160a01b0319831681178455604051919092169283917f8be0079c531659141344cd1fd0a4f28419497f9722a3daafe3b4186f6b6457e09190a35050565b6104928061007a5f395ff3fe608060405234801561000f575f80fd5b5060043610610090575f3560e01c80638da5cb5b116100635780638da5cb5b14610104578063a786ccdc1461011e578063e47d606014610131578063e744092e14610153578063f2fde38b14610175575f80fd5b806359bf1abe14610094578063715018a6146100d4578063756742f8146100de5780637ff1d2d9146100f1575b5f80fd5b6100bf6100a236600461040b565b6001600160a01b03165f9081526001602052604090205460ff1690565b60405190151581526020015b60405180910390f35b6100dc610188565b005b6100dc6100ec36600461040b565b61019b565b6100dc6100ff36600461042b565b6101d8565b5f546040516001600160a01b0390911681526020016100cb565b6100dc61012c36600461042b565b610257565b6100bf61013f36600461040b565b60016020525f908152604090205460ff1681565b6100bf61016136600461040b565b60026020525f908152604090205460ff1681565b6100dc61018336600461040b565b6102ca565b610190610348565b6101995f6103a1565b565b6101a3610348565b6001600160a01b0381166101b5575f80fd5b6001600160a01b03165f908152600260205260409020805460ff19166001179055565b6001600160a01b0381165f9081526002602052604090205460ff166101fb575f80fd5b6001600160a01b0382165f81815260016020818152604092839020805460ff191690921790915590519182527f42e160154868087d6bfdc0ca23d96a1c1cfa32f1b72ba9ba27b69b98a0d819dc91015b60405180910390a15050565b6001600160a01b0381165f9081526002602052604090205460ff1661027a575f80fd5b6001600160a01b0382165f81815260016020908152604091829020805460ff1916905590519182527fd7e9ec6e6ecd65492dce6bf513cd6867560d49544421d0783ddf06e76c24470c910161024b565b6102d2610348565b6001600160a01b03811661033c5760405162461bcd60e51b815260206004820152602660248201527f4f776e61626c653a206e6577206f776e657220697320746865207a65726f206160448201526564647265737360d01b60648201526084015b60405180910390fd5b610345816103a1565b50565b5f546001600160a01b031633146101995760405162461bcd60e51b815260206004820181905260248201527f4f776e61626c653a2063616c6c6572206973206e6f7420746865206f776e65726044820152606401610333565b5f80546001600160a01b038381166001600160a01b0319831681178455604051919092169283917f8be0079c531659141344cd1fd0a4f28419497f9722a3daafe3b4186f6b6457e09190a35050565b80356001600160a01b0381168114610406575f80fd5b919050565b5f6020828403121561041b575f80fd5b610424826103f0565b9392505050565b5f806040838503121561043c575f80fd5b610445836103f0565b9150610453602084016103f0565b9050925092905056fea26469706673582212208ebd99346e9d02ade51b9174961678907e2981a40f96190e575e2be57e86605464736f6c63430008140033",
  "immutableReferences": {},
  "source": "// SPDX-License-Identifier: MIT\npragma solidity ^0.8.0;\nimport \"@openzeppelin/contracts/access/Ownable.sol\";\nimport \"./interfaces/IBlacklist.sol\";\n\ncontract BlackList is Ownable, IBlacklist {\n    mapping(address => bool) public isBlackListed;\n    mapping(address => bool) public allowedTokens;\n\n    event DestroyedBlackFunds(address _blackListedUser, uint _balance);\n    event AddedBlackList(address _user);\n    event RemovedBlackList(address _user);\n\n    constructor() {}\n\n    function allowedToken(address token) external onlyOwner {\n        if (token == address(0)) revert();\n        allowedTokens[token] = true;\n    }\n\n    // Getters to allow the same blacklist to be used also by other contracts (including upgraded Tether)\n    function getBlackListStatus(address _maker) external view returns (bool) {\n        return isBlackListed[_maker];\n    }\n\n    // function getOwner() external returns (address) {\n    //     return owner;\n    // }\n\n    function addBlackList(address _evilUser, address token) external {\n        if (!allowedTokens[token]) revert();\n        isBlackListed[_evilUser] = true;\n        emit AddedBlackList(_evilUser);\n    }\n\n    function removeBlackList(address _clearedUser, address token) external {\n        if (!allowedTokens[token]) revert();\n        isBlackListed[_clearedUser] = false;\n        emit RemovedBlackList(_clearedUser);\n    }\n\n    // function destroyBlackFunds (address _blackListedUser) public onlyOwner {\n    //     require(isBlackListed[_blackListedUser]);\n    //     uint dirtyFunds = balanceOf(_blackListedUser);\n    //     balances[_blackListedUser] = 0;\n    //     _totalSupply -= dirtyFunds;\n    //     DestroyedBlackFunds(_blackListedUser, dirtyFunds);\n    // }\n}",
  "sourcePath": "/home/leoscant/Projects/MasterZ/HW1/contracts/Blacklist.sol",
  "compiler": {
    "name": "solc",
    "version": "0.8.20+commit.a1b79de6.Emscripten.clang"
  },
  "schemaVersion": "3.4.14",
  "updatedAt": "2023-07-21T09:53:02.321Z",
  "devdoc": {
    "kind": "dev",
    "methods": {
      "owner()": {
        "details": "Returns the address of the current owner."
      },
      "renounceOwnership()": {
        "details": "Leaves the contract without owner. It will not be possible to call `onlyOwner` functions. Can only be called by the current owner. NOTE: Renouncing ownership will leave the contract without an owner, thereby disabling any functionality that is only available to the owner."
      },
      "transferOwnership(address)": {
        "details": "Transfers ownership of the contract to a new account (`newOwner`). Can only be called by the current owner."
      }
    },
    "version": 1
  },
  "userdoc": {
    "kind": "user",
    "methods": {},
    "version": 1
  }
}